:020000041004E6
:1000000030260020858E0510458F0510478F05107E
:1000100000000000000000000000000000000000E0
:100020000000000000000000000000001B4404105D
:1000300000000000000000004B470410D74C0410E3
:100040005F6704103F69041000000000000000001A
:10005000BD6E04107B6D0410BD9B0410F36D041085
:100060000000000000000000000000000000000090
:10007000000000008B710410977504101F770410A6
:1000800000000000AF7E04103D7905108F8F041032
:10009000B38F0410E7930410179404106B960410A8
:1000A0000000000000000000000000000000000050
:1000B0000000000000000000000000000000000040
:1000C000F0B50920C0060068A3B00D90002008908C
:1000D0000E900790199017900D988003800F01D013
:1000E00001F051FBFE48008838234007400F0A907A
:1000F000FC480168AF2080000F186520C0000D1873
:10010000012080020818426A0A98584314187F2078
:10011000C00008180B900A988101F3480E18A078C7
:1001200012904007400F0F90F0490D9808400121B0
:10013000C903884202D101F04DFBF5E301F054FB05
:10014000002809D1E7480088483081B20120000426
:1001500009180920C006C160E24800210068412258
:1001600011540F99E24A1192012921D002297DD020
:10017000032900D1FEE3052900D1FCE3062901D1C2
:1001800001F06EFA072901D101F080FA092100205F
:10019000C906486001F030FB0D98002801DB01F032
:1001A00088FA01F021FB002801D101F07FFAF4E385
:1001B0000D99C90100D4F1E30D9949037BD4F1896C
:1001C000012040070918498809180C91B1890918BC
:1001D000498808180C991090087808A907073F0F5C
:1001E0000C9801F073FD0D98002863DA032F02D0FC
:1001F000052F61D0B3E11298C0065BD5012019909C
:10020000BC48007800281DD00B981DA901950291CB
:10021000009014AB0220109A0C9901F073FD02902B
:100220000298012846D0012000060790318A28460E
:100230008030026A1180008C3082B07A80210843BD
:10024000B0728CE110A90C9802F0A8F80C98801CF0
:1002500001460A7810464A78120210438A78C97813
:100260001204104309060843020200E09AE10C98C8
:1002700000784006C00F02430C98411D0B781846C9
:100280004B781B0218438B78C9781B041843090666
:1002900008430102104602F097F810992A6891422B
:1002A000BED111996A689142BAD10128BBD0129887
:1002B0004006B8D453E177E01298000773D50027C1
:1002C0000920C00647608B480078002828D00B988A
:1002D0001DA901950291009014AB0220109A0C996F
:1002E00001F010FD01285BD008AB2246294600969C
:1002F0000C9802F08DF8294680314869002802D018
:10030000896B808948807748006820308774284648
:10031000C030C27B0A998A4245D10821C1731EE1CF
:1003200069460C9802F03AF80C98801C01460A784D
:1003300010464A78120210438A78C9781204104392
:10034000090608430C99000209784906C90F0843B9
:100350000C994A1D1378194653781B021943937858
:10036000D2781B04194312061143090202F02CF83B
:1003700000992A68914213D101996A6891420FD17C
:10038000012802D0129800060AD512988006ABD533
:100390000898A968884203D10998E9688842A3D0DF
:1003A000A420405B3082DAE0B289A021495B89B2A7
:1003B0008A4201D1012117914F498C46897901293F
:1003C0007ED11199CB7DFF2B7AD036225343494AF7
:1003D00065219A1817464032C900527F411850379C
:1003E000002A65D101239B02C018436C3A78203360
:1003F0009A72436C40339A74436C60339A76436CC0
:10040000A0339A70436C7A782033DA72436C4033AD
:10041000DA74436C6033DA76436CA033DA70436C81
:10042000BA7820331A73436C40331A75436C6033C7
:100430001A77436CA0331A71436CFA7820335A73DD
:10044000436C40335A75436C60335A77436CA03326
:100450005A71436C3A7920339A73436C40339A75DE
:10046000436C60339A77436CA0339A71436C7A790A
:100470002033DA73436C4033DA75436C6033DA77D8
:10048000436CA033DA71476C402220373B7A134328
:100490003B72476C40373B7C13433B74476C60377F
:1004A0003B7E13433B76436CA0331878104318709F
:1004B0008869012850D11198C27D3620424300E05E
:1004C0004DE00C483E2312189B5C002B44D1403277
:1004D0004B6BD27D1A72119A3623D27D5A430DE0AE
:1004E000C0000020D4020020CC0000200080FBFFD0
:1004F00080410020403E0020A041002012184032E0
:100500004B6B127E5A72119A3623D27D5A431218BF
:1005100040324B6B527E9A72119A3623D27D5A43E7
:10052000121840324B6B927EDA72119A3623D27DCA
:100530005A43121840324B6BD27E1A73119A3623EB
:10054000D27D5A43101840304A6B007F5073486B7D
:100550008022017811430170002061468871B07AD1
:10056000000600D41AE2308A294680318A8C92B281
:10057000904200D012E22F22525D0869F2720022EE
:100580000923DB065A60002802DD401E086106E0F0
:10059000002804D1012007900A9802F075F801F0B4
:1005A0002BF9FBE10D98C00100D4F5E52846803019
:1005B0000B90806B817AEE22114081720D9840037E
:1005C00037D40D98400106D500200921C90648609E
:1005D00001200E9011E00D98400011D5E078401EEA
:1005E0000006000EE07004D10921C9064860012010
:1005F0000E9060794006400E60710020686440E013
:10060000FE490D98084202D0012022214855A069D8
:1006100060612079E070686C0028EAD00920C0068B
:1006200080680021E9640222A86460204255A9651F
:10063000DFE7606A41880120400708187F210078C1
:10064000495D0843C00606D401200E900020092110
:10065000C906486010E0686D02F0E4F80146092020
:10066000C00602692B6DD21A1202120A914203D2FD
:1006700001210E910021416001202169C0038143C5
:1006800021610D98400210D5B08901214907401819
:1006900040884018216B814207D180780D2804D111
:1006A000012021690004814321610D98002848DA66
:1006B0000B98806B41880120400708180922D20658
:1006C00005905069CE4BC00DC00707D0012008909F
:1006D00000205060012007930E90B7E0412120696F
:1006E0004901084207D005984078C106490F02D059
:1006F0000599001F487005987F2100784855C04330
:10070000800707D02069C1036FD505994978C906CC
:100710000CD192E005988178022913D06079C00647
:100720000FD4062917D02069C70329D501200890C6
:1007300000205060012007930E902169000481433E
:10074000216183E0C0780106AE480818216B08607B
:10075000272060717AE001210798890308430790F8
:10076000A94920690840152149020843206128460B
:10077000C030C27B0A998A4268D10821C17365E002
:10078000002910D0012922D0032926D00A292DD0F2
:100790000B2930D0082931D00C2933D0082210433E
:1007A0002061E17152E022462946059802F04AF89C
:1007B0000598C17982790802104394494002401893
:1007C0009349896A814200D2084668653EE0224624
:1007D0002946059802F059F838E00799802211431C
:1007E000079151020843206130E026E08921C901C8
:1007F000084320612AE08749084001E010210843AE
:10080000206123E0810709D507990422114307914C
:10081000022188430822CF214A5503E0C10701D1B4
:10082000042108430121084320610598214605223F
:100830002831C01C02F045F808E00346324629463C
:10084000059802F047F80799084307900D98400271
:100850006BD5B189012040070A1851880B186079BF
:10086000E169870701D5002909D040084000276BBE
:100870009F423DD160719878042805D01AE0012785
:10088000384307436771F2E73869386063790127B5
:100890003B436371C0050DD52069202318432061B7
:1008A0002846C030C37B082B04D10A9BC3737D2329
:1008B0005B0283816079C0060BD50120089000207F
:1008C0000923DB06586001200E90534B079818430C
:1008D00007906079800614D500200923DB06586054
:1008E00001200E9008904D4B07981843079008E0A0
:1008F000A34206D0002904D007982023184307906C
:1009000049696079C00702D0208E508027E0002915
:1009100004D0332320695B0118420FD054800D9816
:10092000002803DA012002E0E9E32CE01120208016
:1009300001212069C9030843206110E04F690020AC
:10094000CB68002F00D0102053808F7AFF06FF0E57
:100950005F70097C102922D0022108431870518849
:1009600001204007091821222069920110420AD073
:10097000002201E022E1FDE30B9842644878C206C0
:1009800001D0001D487020694106890F23D08006E0
:100990000E99C00F002909D105E0ECE390E1012197
:1009A00008431870DBE70D99490309D50028F07D4D
:1009B00002D00821084301E0F7210840F0750AE061
:1009C000002804D0F17DF7200140F17503E0F07DAF
:1009D00008210843F075334622462946059801F060
:1009E000DBFF0E9800286FD06179F27A0120029225
:1009F0002022925D0023B3722B4611E0000040805C
:100A00000800100001000200DFFBFEFF9AFDFFFF5F
:100A100050480020BFFFFEFF080001000800020050
:100A200020330C939B78002B1AD0A379002B17D17D
:100A30008B069B0F14D1FE4B1B6820339B7C002B35
:100A40000ED1E369002B0BD1CF235F5D0A9B9F4240
:100A500006D00C23E35E581C5343029A9A18029264
:100A6000626B238952004243181820816069801A02
:100A700060610B98806B837A11273B438372284611
:100A8000C030C77B0A9B9F420AD183899B1A83810E
:100A90000FD501200890E748079B0343079308E020
:100AA0006069002805DC01200890E34B0798184393
:100AB000079088060CD5480707D401200890DF4925
:100AC00007980843079003E070E0FB200140617144
:100AD0002079E07001206864E86CD94F8018E864E0
:100AE000A079C00716D07620405B2189401A80B2D9
:100AF0003911884204DB012008900798384308E048
:100B0000002807D12146284601F0ECFF0799800113
:100B100008430790A079800721D57A20405B21897E
:100B2000401A401C012180B2C903884205DB012024
:100B3000089007983843079011E000280FD10B98D0
:100B4000FD21406800907D20405D0190A079052244
:100B50000840A07131462131684601F0B2FE02988A
:100B600001F0ECFFF0720C98002787700920C00696
:100B700001690A9801F0EEFF089900290CD00A9843
:100B800001F082FDAA4901200968086500F034FEE1
:100B9000A7480068076508E50721090508430B9980
:100BA0000322896B091D02F0F1F9EBE70B99A548C7
:100BB000896B0322091D02F0E9F9F6E4012116917F
:100BC000002113910D99C90119D50D99490316D525
:100BD0000B988068318A80B2814271D10B9800965F
:100BE000006A00232246294602F0D8F92846C03080
:100BF000827B0A998A4263D108218173D3E20D99DD
:100C000000297DDAF28901214907521852885118CA
:100C10000C91294620311291C978022971D00C9A81
:100C200012781207120F1492012905D1022A03D05B
:100C3000012A01D0042A23D1012113910021B1728C
:100C40000B99C96871820B99C968897A0922D20601
:100C5000BB6B12699A1A130201221B0AD205934236
:100C600009D900220923DB065A60112211430B9A8D
:100C7000D268917204E0EE2211400B9AD268917210
:100C80007149097800291CD0012189024018426C61
:100C90000B981DA90291009020AB019500200C99A2
:100CA00001F030F80290029801287DD00B988169FC
:100CB0000C9881421298C07877D1012876D0F6E05E
:100CC000A3E10C9808A900780007000F1A900C986F
:100CD00000F0FCFF69460C9801F060FB0C98801C4A
:100CE00001460A7810464A78120210438A78C97879
:100CF00012041043090608430C990002097801E028
:100D00006BE1ECE04906C90F084318900C98411DAF
:100D10000A7810464A78120210438A78C978120479
:100D20001043090608430002000A010215901898B2
:100D300001F04AFB0146002002901A98032804D0D3
:100D4000052802D0012803D00AE00120029007E024
:100D500000982A689042F8D101986A689042F4D1CC
:100D600012980079002803D0012901D001200290B7
:100D70001A98042897D12E4801680120800208188B
:100D8000416C08200A181378184653781B02184340
:100D90009378D2781B041843120610430202087895
:100DA000C0090243082002E089E093E015E0C91C75
:100DB00009180B7818464B781B0218438B78C978B2
:100DC0001B0418430906084300021899000A9142BF
:100DD00075D11599814272D165E7154801680120E6
:100DE00080020818406C08A908300190801F1590F7
:100DF000286818900C9800F069FF0198099A20382B
:100E00000090017E521249068023490E1A40114378
:100E10000176062208A8019901F053FD0A490878D5
:100E200001282BD11198407DFF2827D036220DE0D4
:100E3000D4020020088040000800040008000200DE
:100E400008000800FA003000403E002050434018DF
:100E50004030407F012811D000984022007E10438E
:100E6000009A107611983622407D5043401801991F
:100E700006225030891F01F024FD18E01598BF228A
:100E80002038817F402311406A6892121A40114332
:100E90008177002115980622189B0370401C0329B6
:100EA0000ED0189B1B12491C1893521EF4D101201E
:100EB000800207901298C078012803D01FE028E034
:100EC0006B68F0E71498022819D0012817D0002089
:100ED000169014E0012815D1C002079019E0FB48D4
:100EE0000078002819D00B981DA90291009020AB22
:100EF0000022019501200C9900F004FF0290029855
:100F0000012803D01298C07802287DD016980028B6
:100F10007BD01398002860D01DE10C9869460078BA
:100F20000007000F18900C9800F0D0FE14A90C9840
:100F300001F034FA0C98801C01460A7810464A7871
:100F4000120210438A78C978120410430906084334
:100F500002020C9800784006C00F02430C98411D15
:100F60000B7818464B781B0218438B78C9781B0402
:100F70001843090608430102104601F025FA01460C
:100F80000B980269436900200290189803280ED03C
:100F900004280CD005280AD0022808D0062806D03C
:100FA00012980079002805D0012909D10AE0012012
:100FB0000290F5E70098904202D10198984201D042
:100FC000012002901898012899D114982968884224
:100FD00003D115986968884291D00020B0720B98AF
:100FE000C06870820B98C068807A0921C906BA6B04
:100FF0000B69D21A130201221B0AD20593427DD932
:1010000000224A60112101E005E0CCE008430B9981
:10101000C96888729FE00B98806830820B98006ADC
:101020000290801C0B90286812900920C006F96B72
:101030008068081A0002000A0121C9050090884250
:1010400003DBFF21090640180090FA2001F0EAFBBB
:101050000099019081420CDA786901F0E3FB009974
:1010600040180090F87E401CF8760199009888425C
:10107000F2DB009802F05EF84012009002980C99A2
:1010800000780978400649008022400E114008434C
:10109000029908708D490A78012A36D1119A927DF9
:1010A000FF2A16D036235A4352184032527F012A63
:1010B0000FD040221043029A107011983622807D82
:1010C00050434018029906225030891C01F0F9FB68
:1010D0001BE000210B980622129B0370401C032981
:1010E00030D0129B1B12491C1293521EF4D102984D
:1010F000BF21007808406968891201E026E05CE3BE
:101100004022114008430299087008A90C9800F089
:10111000DDFD029800220830089907460623017079
:10112000401C032A10D00912521C5B1EF7D10098F4
:10113000B87300980004000EF873089828610998A5
:10114000686130E06B68CEE70999EDE7EE21084071
:101150000B99C96888720920C0064068002801D12F
:1011600000F04AFB0920C006F96B0269891A0A02DD
:10117000120A01E01BE09CE20121C9058A4212DB50
:10118000786901F04FFBF96B4018F863F97E491C50
:10119000F9760921C9060969401A00020121000AED
:1011A000C9058842ECDA284601F0C9FFF3E40121C1
:1011B0000D98C903884204D0606A817AEE221140FA
:1011C00081720D98C00138D50D98400330D40D9828
:1011D000400106D500200921C906486001200E9073
:1011E00011E00D9840001ED5E078401E0006000E6C
:1011F000E07004D10921C906486001200E90607991
:101200004006400E60710920C006B96B0269891A58
:1012100009020122090AD20591420ED901210E913B
:101220000021416009E0A06960612079E070E6E793
:1012300001212069C903884320610D98400210D51F
:10124000B08901214907401840884118206B884225
:1012500007D188780D2804D1012021690004814339
:1012600021610D9800284BDAB420405940880121B3
:10127000490740180922D20605905069144FC00D45
:10128000C00736D1208A800407D505984078C30668
:101290005B0F02D0059B001F58700598636A0078A9
:1012A0005B88591809780143C90603D401210E91BE
:1012B00000215160C04380070CD02369D80376D544
:1012C00005984078C00614D17FE00000403E002021
:1012D0000880100005988078042812D0052815D0C1
:1012E000062828D002282FD00D2837D02169CB031B
:1012F00039D50120089000205060012007970E90FA
:101300006CE0F84920690843206167E000203070F4
:1013100070717070B071B070F071F07030728021C7
:10132000317170722069890008432061F17D0820C5
:101330000143F17552E0412021698002814301207F
:1013400080032161079049E00598C0780106E648CE
:101350000818216B0860272060713FE00121079881
:10136000C905084317E00B2808D0092811D00C281C
:1013700013D0082211432161E0712FE0DB480143C3
:101380000520C00281432161F07DF7210840F075FE
:1013900024E001200003079020E0880708D50420FE
:1013A0000790022081430820CE22505502E00CE035
:1013B00004200143012001432161059821460522B3
:1013C0002831C01C01F07DFA08E032462946059814
:1013D00001F080FA01460798014307910D984002F9
:1013E00075D5B089012149074218508843186079A2
:1013F000E169870701D5002921D040084000276B0B
:101400009F4220D16071C3060BD5012308930023AE
:101410000927FF067B6001230E93B54F079B3B43D3
:101420000793800618D500200923DB0658600120A9
:101430000E900890AF4B0798184307900CE00127D7
:1014400038436071DBE7A34206D0002904D0079837
:10145000202318430790496963792069DB0702D08C
:10146000208E508022E0002901D040050DD5548007
:101470000D98002801DB112000E0012020800121CF
:101480002069C9030843206110E0C86850804F6993
:101490000023002F00D010238F7AFF06FF0E477025
:1014A000097C102951D002210B430370508801217F
:1014B00049074018812221699201114207D0002278
:1014C000C4214A514178CA0601D0091D41703346F2
:1014D00022462946059801F05FFA0E98002800D1AF
:1014E00064E661798020B0722289606B521C22818F
:1014F00062694000121A6261626A937A11273B4363
:1015000093722F46C037BB7B0A9A934209D17A89DE
:10151000101A788105D501200890774A0798104362
:1015200007906069002805DA01200890734A07983F
:101530001043079088060FD548070AD40120089069
:101540006C4807990143079106E001210B430370A2
:10155000ACE7FB20014061712079E070A079C00701
:1015600041D0284640300090808E2189401A0121C8
:1015700080B2C903884206DB0120089060490798C1
:10158000084307902FE000282DD15E4800884007CF
:10159000400F01F0DFFD0146A0790C234008400018
:1015A000A071387A4008400038729C20405B60632C
:1015B000009A0098128E808DE35E1201834204D15E
:1015C000A069904201D1002904D007984021084326
:1015D000079001E00820B8730098808DA0810098E2
:1015E000008E0001A061A079800728D57820415B9A
:1015F0002089081A81B20120C003814204DB4049DE
:101600000798084307901FE0002918D17C214A5D04
:10161000A1798020FD2340591940A1713146203124
:10162000487003041B0E8B7003021B0ECB70000E60
:1016300008714A71012107984905084307900898E5
:10164000002801D1FEF7A6FD00200921A070C906DF
:1016500048602C4800884007400F01F015F8F1E77A
:10166000A4204059817A490849008172FF20013045
:1016700001F0D8F8296D40180002000A012149063E
:10168000411828650920C00641600BE00920C0060A
:10169000016929650021A42252599172006800282D
:1016A00000DB83E52089401C20817FE50A9801F05A
:1016B00079FD0F98012804D002282BD0052829D0C5
:1016C00054E00D98C00151D500F08EF800284DD19E
:1016D0000D984003A86917D4022847D0199800280C
:1016E0001BD043E000010100010002008054010012
:1016F0000880010008800200088040000880040083
:1017000008800800C0000020022806D01798002892
:1017100003D12BE00E98002828D02B4808902320D6
:1017200009900022684602700920C00603E06B465B
:101730001978491C197069460978642902D2C16870
:10174000C903F4D408A98BB2012109045918C16056
:1017500069460A7003E06A461178491C11706946AF
:101760000978642902D2C168C903F4D400962246DC
:101770002946079B059801F04DFD33462246294630
:10178000059802F0A5F90D98000401D500F022F8A3
:101790000D98C1030D4806D50D49022309680918A3
:1017A0008A681A438A600D99890306D5084904227C
:1017B000096809188868104388600921C9060D98CE
:1017C000086023B0F0BD0000022301020003000006
:1017D000D40200200348DF220068403041781140E5
:1017E00041707047D4020020024800682030407EDB
:1017F00070470000D4020020F0B5FD4CAF202168F6
:1018000080000D18084695B064300F9001208002CA
:101810000818406A10906520C0000E18286B0A90C6
:10182000284620301290807D0007000F0190F1487B
:1018300000F0F8FF04900020139072B62068F722A1
:1018400040304178114041700F98012101710F988B
:10185000002141710F980068C1080F98C90001600C
:10186000E548008800070CD5E34800883821400788
:10187000400F484310994018807841070F98490F4E
:10188000417162B60198082814DA3821484310994A
:101890004418DA48876AD848407AC00001F04AFC08
:1018A000616B49024018D34949424418A74200D20B
:1018B0003C4674650120800200F0B4FF0A9941188B
:1018C000CD48407AC00008181490706D00F0AAFF4F
:1018D0000A9940180290A87C002809D1019808288C
:1018E00006DBC549002008800921C906486047E198
:1018F00068680B90286C0990012080070024E4435D
:10190000079000200090AA7C2DE00199884228D001
:10191000B74909682031097D0907090F814220D0A4
:10192000A96A4300095C8C46296AC95A0B9B8F013E
:1019300061464B43F91806E0EB6A0B9F1B5C5B1C8E
:101940005F4379189C44099B994201DAD307F3D18C
:10195000079B994205DAD30703D0079161460446F5
:1019600000915210401C002ACFDC079800F05AFF6B
:1019700029684718686AA1004058800100F052FFAA
:10198000C0190D909A480068006D00289C480069B5
:1019900003D0391A0498400002E0391A0498401024
:1019A000081A0002000A0121C9050590884209DBD6
:1019B000002C9CDB204602F031F98E490798401834
:1019C0000990286401210598C905884294DA002C01
:1019D0008DDB0098002845DD0B994843059000F009
:1019E00021FF296840180002000A2860296C059828
:1019F000081A286407990598081A0790002029E01A
:101A0000A86A05990990405C00990B9088421BDAFE
:101A1000E96A0598085C0C900099401C884209DA34
:101A20000C990098491C02F08FF90C98401A401C40
:101A30000B9904E0009A0C990B98891A491C4018DC
:101A4000059A0999885403E0421A05990998425465
:101A50000598401C059066480068A030017A0598FA
:101A60008142CDDC0198082871DA0A98C01B010276
:101A70000120090AC00581421ED30498391A14981E
:101A8000081A02020120120AC005824201D31498EA
:101A90000AE0029A891A0902090A814201D20298CF
:101AA00003E004984000381A02900A99401A000294
:101AB000000A01F03FFB7065049902984018C01BB2
:101AC00001020120090AC005814259D204994A0045
:101AD0000D9952180A99511A0902090A814236D2FF
:101AE000012013900198382148431099421838205A
:101AF000604341181298807DC30613D48A79D307B6
:101B000002D07422925B03E0920707D57822925BA1
:101B10000B89D21A521E1204120C0BD049790906F5
:101B200008D42DE09179CB072AD1890728D451799F
:101B3000090625D4EF2108401299887504990D985B
:101B40004118019801F006F8019802F057F9002CAD
:101B500023DB2849079840182864382010996043EF
:101B6000401880784007400F012816D188208059FE
:101B7000082812DD02F08EF94005400DC7190CE06F
:101B800002980D9013980A9F019C002805D0129886
:101B90001021807D0843129988750D983F0200023C
:101BA000000A3F0A0D90002C2FDB114848210068E5
:101BB000C462204608431049088033468033586B7E
:101BC000817ACA06D20E61010A4382729A6B907AB8
:101BD000C006C00E08439072376502F06FF9002806
:101BE000306D0FD00121490641180548416010E0D1
:101BF000D402002066020000C000002050480020EF
:101C00000000004801210906EEE700200921C9066D
:101C10004860082C4ED2382044431098211872B6E0
:101C20000F988A7800685207C008C000520F10430E
:101C3000224A1040FA0010430F9A106062B688786A
:101C40004007400F032832D00120400200F0EAFD97
:101C50000D99081A0002000AA863298B6869890196
:101C6000401800F0DFFD29684418154800F0DAFD3F
:101C7000201A0002000AE8630120124CE87620686E
:101C8000406D002806D002F043F92068416D4908F4
:101C9000490041652068406D002806D002F05AF9DD
:101CA0002068416D02229143416515B0F0BD0120CD
:101CB000C002CBE7044900200880F6E7070000F8DF
:101CC00035020000D4020020C000002070B5044698
:101CD0000D46801C02F05EF961790002000A0906D7
:101CE00008432860E079A179000208432178490679
:101CF000C90F09040843686070BD002801D0096855
:101D000001607047FFB59FB0FF200024009094460B
:101D1000881C1C941B940246137820461843537861
:101D20001B0218439378D2781B0418431206104301
:101D30000A7800025206D20F1043229A10604B79A3
:101D40000A7A18468B7912061B021843CB791B04BA
:101D50001843104302022298120A426008200A180F
:101D60001378184653781B0218439378D2781B04D3
:101D70001843120610430A780002D2091043029059
:101D8000C81C082282181378184653781B0218437F
:101D90009378D2781B041843120610430002000AFD
:101DA00003902298406800021890800F012803D108
:101DB00022980078012806D0002203980002830FA1
:101DC000012B02D005E00122F7E7029BDBB2012BD9
:101DD00000D000231093189B9B0F03D1229B1B78EC
:101DE000012B00D000231793800F03D10298C0B2BB
:101DF000012800D00020099008780507FE481A90B5
:101E0000FE482D0F16907C301E9000200B900C90F9
:101E10000890012015900A90F9491D900878002833
:101E200001D0012300E000230F93012804D1F449DD
:101E30004978002900D10124F24E1496299E61466A
:101E40001F9B374620370831002B11D0012B49D07A
:101E5000032D02D0052D00D00124299B9B69032B63
:101E60007BD0022B7AD0012B79D0042B77D088E05D
:101E7000032D06D0052D04D0042D04D0012D05D04E
:101E800009E0012407E001230B9304E00F9B002BE2
:101E900001D101230C9363469B1C12931191397954
:101EA00003290FD001290DD0002308930A9300299C
:101EB0000AD0012908D000211591012806D0012D52
:101EC0000AD08BE00123F0E70121F5E7012D7DD158
:101ED0000999002900D001241099002948D1012135
:101EE0000C91D2E0002D02D0012D00D001243979CF
:101EF000012907D000230893179B002B06D0002947
:101F000002D003E00123F6E700230A93109B002B85
:101F100002D0012D04D00FE0012D0DD1012804D0F5
:101F2000002807D0002B05D006E0149B1B79012B5D
:101F300000D1012401230C93002A01D0002805D1EF
:101F4000002901D101230B93002A09D0012840D197
:101F5000002907D101211C9104E00CE009E00CE00C
:101F6000012836D1012D7DD10999002900D0012405
:101F70008BE0052D05D1012403E0002A08D00028BC
:101F800006D000260B96032D04D0052D06D00AE0BE
:101F90000126F7E77E7BF60703D104E07E7BB607D8
:101FA00001D501260896089E0A9601260C966646DB
:101FB000B61C12961191012807D1012B01D0042BD8
:101FC00003D11799002900D0012400E006E0052D77
:101FD00052D0012D59D01F9901295BD012990B467F
:101FE0001E7831465E78360231439E78DB783604BF
:101FF00031431B06194363461B7809025B06DB0F5E
:10200000194306911299C91C0B461E7831465E7819
:10201000360231439E78DB78360431431B06194380
:102020000902090A05911F99012933D011990B461C
:102030001E7831465E78360231439E78DB7836046E
:1020400031431B06194363461B780902DB09194318
:102050000E911199C91C0B461E7831465E783602E6
:10206000314300E016E09E78DB78360431431B06EE
:1020700019430902090A19E0002AAFD0012B01D047
:10208000042BABD101211B91A8E75F49CB6D0693CF
:10209000096EC7E728990B6949691E02CF03FF0F34
:1020A00009043E43090A1B0E19430E961191574924
:1020B0000991002C78D1002A78D0002847D00F99B8
:1020C000002973D02298189B00684022844650480B
:1020D00081180E46803EB76FF66F3602B34203D8C2
:1020E000B34202D1BC4500D308465210082AEFDAA9
:1020F0004849411A80388039866FC9B2664510D187
:10210000C06F000298420CD1C808401EC0B2FF2820
:1021100007D0FE2822D0C1001E980818C079009070
:102120009BE0052D02D11F98022804D0344EB078D0
:10213000FF280FD012E00121229801F037FF41085B
:102140007F2905D0C10016980818C079009084E056
:102150000A9C82E00998807EFF280AD01F980128F7
:10216000F6D11498C079022876D20898002873D145
:1021700017E007222848229901F090FF0020B07054
:102180002648EF22006840304178114041701F9886
:102190000128DDD11498C07902285DD20898002862
:1021A0005AD101200B9058E05CE0FFE71799002915
:1021B00001D001284CD00F9800284ED02298189BAF
:1021C0000068402284460D4881180E46803EB76F55
:1021D000F66F3602B34203D8B34202D1BC4500D3F6
:1021E00008465210082AEFDA0A49411A8038091FB6
:1021F000866FC9B2664513E06A3E0020AC410020FC
:10220000403E0020A04100204041002080410020AD
:1022100028420020A8410020503E0020D402002087
:102220001BD1C06F0002984217D1C808401EC0B22F
:10223000FF2812D0C10016980818C07936210090E6
:1022400048431A994018007D002805D005E003E0B6
:1022500000200A9C1D9000E001240999009848750F
:10226000009888750F9800283BD00098FF2807D069
:102270001B98002804D0C97D0098814200D0012419
:102280001C98002807D00098FF2804D00998C17E28
:102290000098814259D1002C58D11098002822D0A2
:1022A000012D20D139480299026A914205D1039942
:1022B000406A09020002814215D00998159C807E6F
:1022C000FF280ED1072202A9314801F0E7FE31486C
:1022D000EF22006840304178114041700999002098
:1022E0008876002C32D11D9800282FD00098FF2826
:1022F00008980AD0002829D00098362148431A9916
:1023000040188078002820D020E000281ED0229895
:102310000768406803022048802281180D46803DEE
:10232000AE6FED6F2D02AB4203D8AB4202D1B74284
:1023300000D308465210082AEFDA8038816FB9427C
:1023400003D1C06F0002984200D001240B980028EE
:102350000BD022990E980968884204D122991198CD
:102360004968884201D001240CE0002C0AD10C9865
:10237000002807D0029906988842F4D1039905985D
:102380008842F0D1204623B0F0BD0000403E00203E
:10239000583E0020D40200202043002070B504469F
:1023A0000D46083001F0F6FDE17A0002000A090648
:1023B00008432860607B217B000208432178C9091B
:1023C00009040843686070BD70B4104A8023D418B3
:1023D0002546803DAE6FED6F2D02A94203D8A9427C
:1023E00002D1B04200D322465B10082BEFDA803ACC
:1023F000936F834206D1D06F0002884202D170BC35
:102400000120704770BC002070470000204300206E
:10241000FFB50D4606468DB000200921C906169F5E
:102420001446486030460E30009001F0B3FD00992C
:102430000002C978000A090608430A9030461230A3
:1024400001F0A8FD0002000A0990707D0490F07D63
:10245000B17D000208430B90707E317E000208437C
:102460000590F07EB17E000208430790707F317FB7
:1024700000020843009030461E3020360290F0786B
:10248000C60640090890F60E0920C0068068A864B8
:1024900000203946E864213105220391029800F0BA
:1024A00010FA0221E17000202222505505980C22DA
:1024B0005043606100202D22105500980123000137
:1024C000A06121716B640598684940024018684911
:1024D000896A814200D208466865002020810799F8
:1024E000A181059961630B994A000121921CEA645C
:1024F000089AEA65A07120612180606A0080606AA4
:1025000044802021695E0F200002491C081A03D470
:10251000401C6081288401E061812984616AC720B0
:10252000C87205220399029800F0CBF90020F872D6
:10253000A18C3982F8750A98B8610998F861202051
:10254000C6554220009003904A48029001232E462F
:102550001098494A9B0249498036002847D0B06B01
:1025600000801068B26BC018406CC8305080B26BED
:10257000C720D072308F78821098414A0068286155
:1025800010984068686104985043FF30F530A865A2
:102590000120603528700920C0060169374800888D
:1025A0004007400F00F0D6FA6179C02211436171F3
:1025B0000021B972A1780546C908C900891C072005
:1025C000A17000050543B16B1B2088722B48008861
:1025D000616A4001083088720020C0433061B16BED
:1025E0000322C91D009800F0D1FCB16B29E0706B8B
:1025F00000801068726BC018406CC8305080726BDD
:10260000C720D072B08E78826079C022104360718A
:102610008020B872A0781B4DC008C000401DA0707B
:1026200008884101606A19318172716B0A208872D1
:1026300001F048FD716B0322C91D009800F0A6FC53
:10264000716B03222846091D00F0A0FCFFF7D4F8A7
:10265000616A0322C91D039800F098FC616A032295
:10266000091D029800F092FC11B0F0BD9AFDFFFF29
:1026700050480020FA003000D4020020C0000020A2
:10268000E20400002C01B000F8B565490646086870
:102690006522D2008518AF22920082180092A822EB
:1026A00004460346125CBC343433B2427EDD002E55
:1026B0007CDB01218902401838217143426A0027DE
:1026C000881C17545648891D026801208002101882
:1026D000406A405C002806D0304601F013FD002817
:1026E00001D1C0352F7272B60098817C0120B040B4
:1026F000814300988174197808077DD44807400FFA
:10270000B04278D000982030827D5207520FB242FA
:102710007BD1434A176881750F2018700098652295
:102720002169D2000163BD182869216829612060F0
:102730006869616869616060A86DA169A965A06147
:10274000686DE1696965E061E86D216AE9652062AB
:10275000214628462431603001F0EEFCA86CA168C7
:10276000A964A060E86CE168E964E060214628465D
:102770002531623001F0E0FC2146284626316630E2
:1027800001F0DFFC2146284628316A3001F0D9FCEF
:10279000214628462A316E3001F0D3FC21462846D6
:1027A0002C31723001F0CDFC214600E037E02846A4
:1027B0002E31763001F0C5FC2146284630317A3082
:1027C00001F0BFFC2146284632317D3001F0B4FCD7
:1027D000EB20800038180168626B0260616307219A
:1027E0006069090508438035A96B0322091D00F0C3
:1027F000CDFB0AE000E006E000982030807D400735
:10280000400FB04201D10F20187000982030817D18
:102810004907490FB14201D10F21817562B6F8BD58
:10282000D40200200649C21309684004096A400C1A
:10283000CB115843514300120818203080117047C3
:10284000D402002010B5C47862235C544379047923
:102850001B0223434031CB84C37984791B02234379
:102860004B85437A047A1B022343CB85C37A847A4F
:102870001B0223434B86437B047B18022043C886FC
:10288000907901210843907110BD70B50546164638
:102890000C46C01C01F07EFBA9790002000A090663
:1028A000084384210851E9797D200155687A297A05
:1028B0000002084340346087B07902210843B071B8
:1028C00070BD04E003780B70401C491C521E002AA6
:1028D000F8DC7047F0B59C462D4B01271B68803112
:1028E000BF02DF194D6B8C6B7B6C0026C833A41CB8
:1028F000AD1C83422DD14078002822D0D07D80238A
:102900005840D075234B604618421AD05079401E6B
:1029100050715079FF2814D19079401E90719079B0
:10292000FF280ED1D079401ED071D079FF2808D170
:10293000107A401E1072107AFF2802D1507A401E81
:1029400050724869002819D11CE080B2208028808C
:102950001BE04A69002A06D003789B079B0F022BD5
:102960000ED0102313744278D0060ED04969D206D7
:10297000D20E086810264A81002803D08089E4E737
:102980000023EFE7786CC830DFE73046F0BD000089
:10299000D402002020280000F0B50746146918462C
:1029A0000E462E308FB0A10315460190002937DA6C
:1029B000102202A92F6BFFF784FF0920C00605999A
:1029C00081610499C1610399016202994162B96907
:1029D00081627969C1628036316C0163F16B416358
:1029E00042690021D20405D44269491CD20401D4B1
:1029F0006429F9DB394A1170816B0591C06B049031
:102A000037480168039140680290102202A801999A
:102A1000FFF757FF0120400484432C610FB0F0BD45
:102A2000E00556D51E462A36019809A900220378EA
:102A30000B70401C491C521C102AF8DB09A800909E
:102A4000FF2001308443412080020443082204A96E
:102A5000F81C2C61FFF735FF38460B300422314655
:102A6000FFF72FFF09240020E40609AE03278100A9
:102A70003A1A9200715812199161401C0428F6DB31
:102A80000598A0620498E062286B082206A90D3020
:102A9000FFF717FF07982063069860630F4900202F
:102AA000087001E0401C08706269D20401D46428F7
:102AB000F8DB0020391A89000919896B8200401C53
:102AC000B1500428F6DB102201990098FFF7F9FEB7
:102AD000A4E7304600F033FBA0E70000BB04002071
:102AE00040000048F0B50246622540322E5C144694
:102AF000114D528E6E43E58CE38DAC46658D8F692A
:102B000012010024974206D10C27CF5F9F4202D1C9
:102B10004F6BAF4200D001248F797F087F008F7107
:102B20008A614A618B814D6386656146C26C49004A
:102B30005118C1642046F0BDE2040000044925227A
:102B4000414309145143401A252800DB25387047BA
:102B5000EB060000F3B5FF4FAF213868890095B050
:102B6000411805916521C9004518012189024118C4
:102B70004A6A044615993430382310905943159801
:102B800056188101F448BC3408180790C07A0C909C
:102B9000E86D01F0DBFA3968C96E401803902846E9
:102BA00060300D90E96C039801F0E0FAE96C0902DD
:102BB0000F1A0D98007801F0DEFA3918E6480C3843
:102BC000407AC00008900846FFF72CFEA96C411817
:102BD0000898081A0102090AFA200191FFF722FE5B
:102BE000169A0199891A081A0002000A0690E96CDF
:102BF000039801F0C7FA07460D98007801F0CAFA69
:102C00003818A96D0127401802900698FF05B842B0
:102C10007EDA10980078C143090706D0159A41075B
:102C20005207490F520F914221D105981599203032
:102C3000807D0009000108430821084310990870AD
:102C40002869206068696060A86CA060E86CE0603A
:102C50000198206102986061A86DA061686DE061D3
:102C6000E86D20620D98203400782071ECE0F721A7
:102C70000840109938230870B64940070A680121B6
:102C800089025118400F496A0246584308180990B2
:102C9000B148910108181390C07A1290FA20FFF7FA
:102CA000C1FD22691699511A081A00020121000A71
:102CB000C90588427EDA1298FFF740FF1399C8725F
:102CC00021690198081A0102090A0391029801F08A
:102CD00069FA01994118A0480C38407AC0000F18D1
:102CE0009E48FFF79FFD21693818081A020201204B
:102CF0000399120AC005814201DC82427EDDB0796F
:102D00000127C1070BD07620405B3189401A00E0D3
:102D10002AE1401E0004000C1AD1002718E08007A9
:102D200016D57A20405B3189401A0004000C0FD17F
:102D30008421495908910D99FD22497F0991B17962
:102D400008A81140B171079905222131FFF7B9FD9B
:102D50000D980078012877D0002F75D0109910AA0F
:102D6000107D0B781375087015994907490F159157
:102D700041070598490F2030807D0009000101437B
:102D8000109801702869216829612060686961686C
:102D9000696160600198216901912061A86CA16856
:102DA000A964A060E86CE168E964E0600298616988
:102DB000029100E05BE06061A86DA169A965A06176
:102DC000686DE1696965E061E86D216AE965214640
:102DD000206224310D9801F0AFF9214628462531B3
:102DE000623001F0A9F9214628462631663001F00B
:102DF000A8F92146283128466A3000E024E001F095
:102E0000A0F9214628462A316E3001F09AF9214670
:102E100028462C31723001F094F9214628462E3193
:102E2000763001F08EF92146284630317A3001F0B3
:102E300088F92146284632317D3001F07DF984350C
:102E40002868616B2960606305990198086305989B
:102E5000159A2030817D09090901114381750C986B
:102E6000FFF76CFE0799C872029817B0F0BD099879
:102E7000406B4700206A01F069F936490968C96E5C
:102E80004018039013982030017812980818129077
:102E9000099809990089401C088109980999406995
:102EA000C01B4861E068C119E160039801F05EF958
:102EB000E16809020F1A204620300A900B90007931
:102EC00001F059F93818FFF7ADFCA16841180898CE
:102ED000081A0002000A2061E168039801F052F923
:102EE00007460B98007901F055F9A1693818401888
:102EF000606109988079800700D4CFE6216916982F
:102F00000A1A08981018019A0002891A0902012267
:102F1000000A090AD2059042EFDA9142EDDC0998E5
:102F2000218E0089081A0004000CE6D1616B0E9115
:102F30000A99FD22897C0F9109990EA8897911407F
:102F4000099A9171109909784907CA0D02495118D7
:102F5000052205E0D4020020CC000020660200001B
:102F60002131FFF7AEFC99E6706B079940002031E4
:102F70000A780C9951180C913189491C3181716979
:102F8000091A7161E96C0818E8640BE603E008703F
:102F90000012491C521E002AF9DC7047F0B50E469B
:102FA000054689B000200921C9060E9F14464860D5
:102FB00028460E30009000F0EDFF00990002C9781D
:102FC000000A0906084303902846123000F0E2FF89
:102FD0000002000A0790687E297E000208430490E0
:102FE000E87EA97E000208430690687F297F0002E0
:102FF0000843059028461E3020350190E878394670
:10300000C5062131ED0E052200910198FFF759FC0C
:1030100000202D2108550221E17004980C22504314
:10302000606105980001A06121710020208106984F
:10303000A081049860630020A0712061012020809D
:10304000606A0080606A44802020305E3449401C01
:103050004118002902DD6181318401E06081308402
:10306000616AC720C872052200990198FFF729FC00
:103070000020F872A18C3982F8750398B86107981E
:10308000F8612020C5554220029080360190706B77
:10309000244D00807069002802D08089716B07E0A0
:1030A00021480121006889024018406C716BC830CA
:1030B0004880716BC720C872B08E7882C020607162
:1030C0008020B872A078194FC008C000401DA070C1
:1030D00017480088616A400119308872716B0A20B4
:1030E000887200F0EFFF716B0322C91D0298FFF791
:1030F0004DFF716B03223846091DFFF747FFFEF7AE
:103100007BFB616A0322C91D0198FFF73FFF616ADB
:1031100003222846091DFFF739FF09B0F0BD000062
:1031200001F1FFFFFA003000D40200202C01B000B2
:10313000C000002008B5694601F038F808BD10B598
:1031400004468034606C002803D001F045F800206C
:10315000606410BD30B51249AF2209689200891829
:103160008B684A689A4204D1CA6A4C7C125CA242BB
:1031700001D0012200E000224B608B684B610C6A99
:103180008B89450063534C6ACB8985006351CC6AB7
:103190004B7C23540B7C896A0B54104630BD0000D5
:1031A000D402002010B519490122096892028A1838
:1031B0003823526A5843121800200923DB0602E024
:1031C000401C642802DADC68E403F9D4886CC96C1A
:1031D0000314FF2000021840C9B20843D9B20028E6
:1031E00001D00B2901DD7F200EE0062359437F39F2
:1031F00001E04010891D1E28FBDCFF23A233584349
:10320000034BC01880124018907310BDD4020020E8
:10321000A0460000FFB5FE487F2100680A27C900CC
:1032200095B0D75F41180991012189024118496A77
:103230000F9151791D4614464B06F64A0E92002B0B
:1032400001DBEA077ED000221092626B04920C220E
:10325000A25E0392A278A3695207520F0293052A35
:103260003DD0032A3BD001220A92BF221140617156
:10327000169910310091E9070AD03C211091169956
:10328000083100270297169A049703970091D76593
:103290000146E0310B7F9B066FD5897F89076CD58E
:1032A000002013901490DC480088DB494007C00DD3
:1032B0000C314018C18901204007091849880E18AF
:1032C0000E983621807D03464843D44941182A2070
:1032D000405C0690F0798009012802D006E00022C7
:1032E000C2E73078400601D5012000E000200190BF
:1032F000C84820304079012816D9FF2B14D00A98ED
:10330000002804D0707B8009012804D00CE006223C
:1033100013A8503106E03078000605D53146062264
:10332000083113A800F0BAFE019800282BD00E989F
:10333000807DFF2822D00622B11C11A800F0AEFE2D
:10334000069800E06BE0C100B54806220918069116
:10335000491D009800F0A2FE0699062208790099FE
:10336000801C88710E983621807D4843AB494018F7
:10337000B11C573000F092FE08E02FE00622B11C8D
:10338000009800F08BFE002011901290169803997F
:10339000C06D049AC3B2029889B20003000C92B2C5
:1033A0000591069007930492009811AA4168019034
:1033B000090213AB090E964802930392009100682C
:1033C0000A9BA03000781099BAB2C00701D0002043
:1033D00000E01020803000F043FF20E01699029AB0
:1033E000C96D039BC9B2049E12030591120C9BB2D6
:1033F000B6B200990296039304924A6801911202B0
:10340000120E0092A03000780A9B1099BAB2C00741
:1034100001D0002000E01020803000F069FF1698F5
:103420002907C0300790169880300390002978DA79
:103430002069E90301D5162619E0A90301D5132651
:1034400015E0290301D5282611E0E90201D53D2622
:103450000DE0690201D5222609E0690306D56179EC
:10346000090601D4082602E03E2600E01F2607993F
:103470003822897B51430F9A8918A14202D1079AB9
:103480000821917307993822C97B51430F9A8918F3
:10349000A14202D1079A0821D1730521890208426D
:1034A00022D0280420D5208A40040ED55848BAB22C
:1034B00000683146A0300078C00701D0002000E04D
:1034C0001020803000F050FF0EE05148BAB2006882
:1034D0003146A0300078C00701D0002000E0102065
:1034E0000023803000F064FFE56903E028466D6941
:1034F00000F084FF002DF9D10020E0614448A021B4
:103500000068095CC90700D000E0102500210222F4
:1035100080350691BFB2E90604D50221BF200540DF
:1035200005E014E0E030407DC0060CD500212846BF
:1035300000F074FF010006D0069A0A71CF800E7267
:10354000284600F0CFFF0020054620616FE26806A4
:1035500022D5A0784007400F052801D1A1696161FB
:1035600005280DD0A069BAB20003010CA089019111
:103570000090A08E002183B2802000F0C7FF56E2A9
:10358000206B4289018901920091C388BAB200215F
:10359000802000F0BBFFB4E1680722D51C488026DC
:1035A00000680222E030807DBFB20007CED50B213B
:1035B000304600F033FF0100C8D08F80159A3046A6
:1035C000D2788A71159A537917791A023A430A8187
:1035D000159AD37997791A023A434A8100F082FF0B
:1035E00025E22805800F70D00120089000200C9063
:1035F00068051ED509988669C0693178727B0F0706
:103600003F0F9209012A0DD1C9090BD001210AE00F
:10361000D402002080410020C0000020403E002055
:10362000A841002000210C91022F0DDD062F09D1A9
:103630000AE01698066B0998006A31780F073F0F69
:10364000042F01D0002108910399897F002937D0E8
:103650000121079100210A9101780B910146133154
:103660008C4601910A9916E0002105916246731873
:10367000525C9B789A4201D001220592491C06298E
:10368000F4DB059A0799114007916146891F8C4622
:103690000A99491C0A910B9A9142E5DB0799002986
:1036A0009ED0511C042900DD04210170411C12220E
:1036B000C01DFFF706F90622B01C0199FFF701F9BA
:1036C000062F03D0022F03D003E0CBE0022700E057
:1036D000032730784006C00F0590012F09D070787D
:1036E000801FC006C00E0290F5480178012915D050
:1036F00023E00020029069463046FEF74FFEF04876
:1037000000780028F0D1169800990068814265D1B0
:103710001698019940688142F9D10EE00E99497DD1
:10372000FF290AD03622514308182030807AC10080
:10373000E44808180079801C059008980028AFD04C
:10374000E14800680146E0310A7F920647D5897F4B
:10375000490744D516992031097901293FD9012F0C
:103760003DD10C9900293AD00E99A37B4A7D0121C5
:10377000FF2A1BD0009136214A43D14908365118FF
:10378000019602932031897ACA00CE4951184B1D07
:103790000979891CA030CAB200780121C00701D084
:1037A000002000E01020A12630430FE0324608320E
:1037B0006F460EC7A03000780121C00701D000205D
:1037C00000E01020A1221043B31C012200F0CAFE29
:1037D0000028B4D009980021006A017027E1B84997
:1037E0000978012921D10E99497DFF291DD0A37B9C
:1037F000029A009236225143B14A0836891801963E
:1038000002932031897ACA00AE4951184B1D0979BB
:10381000891CA0300078CAB23946C00701D0002008
:1038200000E01020A126304313E0A37B324602992A
:1038300008320091019202930599A0300078CAB233
:103840003946C00701D0002000E01020A123184312
:10385000B31C00F0C1FE002803D009990020096ABA
:103860000870E4E0E80424D5802001900020049052
:1038700015980322C01C05909348BFB20068E03041
:10388000017F890638D5407F000735D50D21019885
:1038900000F0C4FD06002FD004993171F780082292
:1038A000B018059900F0FAFB3146019800F01AFEB5
:1038B00022E0680429D5208A40040ED58248BAB295
:1038C0000068A0300078C00701D0002000E0102080
:1038D0000021803000F048FD0EE07B48BAB200685D
:1038E000A0300078C00701D0002000E010200123A4
:1038F0000021803000F05CFDA0784007400F0528D3
:1039000002D107990820887391E028021FD5208AE8
:1039100000051BD56C48BAB20068A0300078C0071B
:1039200001D0002000E0102000231A21803000F098
:103930003FFDA0784007400F052802D107990820D5
:103940008873432120698902884320616FE028063B
:1039500061D515980D30019006A80A901E98263062
:103960000990002001461E9A11541E9A1218517196
:10397000401C0528F7DB1E98802141725248A02187
:103980000068095CC90701D0002100E010218031E6
:103990000091B9B20C911599C91C0B9115990A7B2C
:1039A000CB7A11021943089100990322C90605D563
:1039B00000980621BF231840009008E0E030017F06
:1039C000890616D5407FC00613D50421009800F063
:1039D00025FD06000DD00C98B080371D0822B01DC3
:1039E0000B9900F05BFB089878813146009800F055
:1039F00079FD08220A990198FEF763FF01980422D5
:103A000008300999FEF75DFF03980699C163039892
:103A1000079901640BE0A80209D50799082088736B
:103A20002A4800884007400F401C00F015FEA806F9
:103A300004D5E0694169E16100F0E0FCE80608D5E1
:103A400003980399406902684A616189018100F025
:103A500063FEE80132D51E98C1890120400709188C
:103A60004988081801784906CE0F05A9FEF72EF9F6
:103A7000A1200190A77B059807900698089012480E
:103A800002220068FF300130007FC00716D00E21EF
:103A9000019800F0C3FC040010D02771251D667149
:103AA000042207A9A01D00F0F9FA042208A9A81D04
:103AB00000F0F4FA2146019800F014FD19B0F0BDB1
:103AC000403E0020A8410020D4020020C000002079
:103AD000FFB5507915698007166B83B01446800FC7
:103AE0000DD1A8050DD501204002854300010543F5
:103AF000434830606079012108436071156107B067
:103B0000F0BD280609D55120C0018543E80401D441
:103B1000402005433B48256161E0E8043BD500F0C7
:103B20000AFE009000F007FE019000F004FE0290F3
:103B3000012000038543032080020543256160794D
:103B4000012108436071206B069910220C302E3140
:103B500002AFFEF7B6FE002006993A780918203128
:103B60008A71401C7F1C0428F6DB27483060206BDC
:103B70000822C11C001DFEF7A4FE206B0222014694
:103B80000B311C30FEF79DFE216B0C2268460D3177
:103B9000FEF797FEB3E76805B1D4680716D521464E
:103BA0002031487B00280DD1184830601848006843
:103BB0008030C08B00043030706062790120024395
:103BC0006271487304208543256198E728070CD566
:103BD0000821E0798D430F490006401825613060C7
:103BE000607901210843507189E7E80687D51020E4
:103BF000854309482561306000207060B060EFE7C0
:103C00000301060003010B000317030003060C0861
:103C1000D40200200302070003090901FEB53D4953
:103C20000122096892028A18536A382242439C187A
:103C30006522D2008D18384A81018E18A17800279C
:103C40004907490F05295DD1616B4B0020218A5D31
:103C50002189491C21816169C91A6161F17A891838
:103C6000252900DB2539F172A179C90729D0294618
:103C700040310091898E2289891A0904090C20D1CA
:103C8000FFF768FA8446A079294640084000A071F1
:103C9000C031087A4008400008720098828D008E7A
:103CA00003010C20205E904205D1A069984202D108
:103CB0006046002801D0402701E008208873A281D7
:103CC000A361A07980071DD57820405B2189401A27
:103CD0000004000C16D18020405900907C20405DEB
:103CE0000190A079FD221040A07169460020331890
:103CF0000A7820335A70401C491C0528F7DB012044
:103D0000400507433B462246294600200096FFF720
:103D100081FAFEBDD4020020CC000020F446002829
:103D200004D4494200F013F8404260474042002961
:103D300005D45FD000F00BF8404249426047494249
:103D400000F005F84942604703460B43E6D40022E1
:103D5000030A8B420BD203098B4219D243088B42D0
:103D60002ED2411A00D20146524110467047FF221E
:103D700009023FD012068B4205D3121209028B4270
:103D800001D31212090203098B4219D300E0090A78
:103D9000C3098B4201D3CB01C01A524183098B4224
:103DA00001D38B01C01A524143098B4201D34B010D
:103DB000C01A524103098B4201D30B01C01A524170
:103DC000C3088B4201D3CB00C01A524183088B42F7
:103DD00001D38B00C01A524143088B4201D34B00E0
:103DE000C01A5241884200D3401A5241CFD20146F4
:103DF0001046704708B500F0A7FC08BDFEB5234982
:103E00000122096892028A18536A382242439D1897
:103E10006522D2008C181E4980014618A879002717
:103E2000C0070BD07620005B2989401A0004000CE3
:103E300004D129462046FEF755FE8701A879800760
:103E400017D57A20005B2989401A401C0004000C19
:103E50000FD18421095960340091617F0191A979C2
:103E6000FD221140A9713146684605222131FEF735
:103E700028FD0648009601686520C00009183B46E9
:103E80002A460020FFF7C6F9FEBD0000D40200203C
:103E9000CC0000200B2000070168490707D5016806
:103EA00004229143016001680822114301604168C6
:103EB0004168C907FCD0806880B27047F8B51248E5
:103EC00003210068090240180926F606846F30694C
:103ED0000E4F201A050238882D0A000701D4002051
:103EE000F8BDFA20FEF79EFC797AC9004018A84276
:103EF00007DA0120C005854203DA400004437460FC
:103F0000EDE79720F8BD0000D4020020C00000209B
:103F1000FEB50F48062201686520C0000C18FF316D
:103F200068460B3100F0BAF8A66BE56B636B246C46
:103F300000206A46811C175C5F54175C7754175C3D
:103F40006F54175C401C67540628F3DB0020FEBD4D
:103F5000D40200207CB50E4C7F202168C0000D18D3
:103F6000FF31062268460B3100F098F8296A0622D4
:103F70006846891CFEF7A5FC0121206889024018CB
:103F8000416C06226846891CFEF79BFC00207CBD24
:103F9000D4020020C3788278417800781B021A434B
:103FA000090212040843104370477047F3B50646F0
:103FB0008DB0FF200090364D344806902846803062
:103FC00001902C1D3146022000F0C0FBFF2842D199
:103FD00028780027002831D9E0793621484306990E
:103FE000337945182B490E9A0B7073794B70B3795E
:103FF0008B700391281D08A90491029000216B4643
:104000001975D3B208AA234900F0F0FB0322711CF2
:1040100008A800F053F8002820D0287D012806D1F8
:1040200007222146304600F049F8002816D01848EB
:104030007F1C0078FFB20834B842CDD8164C00205F
:1040400060703146022000F0FBFB01216170FF2807
:1040500001D0FE20009000980FB0F0BD00970E4FE9
:10406000002078706978012000F0D6FC31460120EC
:1040700000F0E6FB6870C2000198E1791018C17188
:1040800001207870009FFF2FD8D0E4E76A3E00201F
:10409000A8410020303E0020403E002010B5040022
:1040A00000F01EFD200010BD10B5040010000A0035
:1040B0000100200000F042FD200010BD80B500F09E
:1040C00067FD02BD10B50D48AF210068890040189A
:1040D0000B490988836A4907490FC27E5A54C36A4B
:1040E000827E5A548C00436A828B1A51036A028B77
:1040F00049005A524169416010BD0000D4020020BD
:10410000C00000200B49AF22096892008A182032B3
:10411000927D34311207120F824206D009780A07C5
:1041200005D44907490F814201D101207047002081
:1041300070470000D402002002780B7803700A70E8
:10414000704702880B8803800A80704710B588B0DA
:10415000044620220449684600F0D6FC6007C00EE1
:104160006946085808B010BD908905108910414370
:104170008812401C7047032802D06320C043704758
:104180006620704741430812292109014843C012A3
:10419000401C7047012801D001487047002070473B
:1041A0007A030000410140188011704710B5094A98
:1041B000831312688004526A800C141260435A43BD
:1041C0008011121810464030C011C3019A1A0A809B
:1041D00010BD0000D402002070B58EB00446006807
:1041E00010226946FEF76DFB102204A96068FEF7F5
:1041F00068FB0023032209216E46C906D01A8000FD
:104200009D0030586D18A8615B1C042BF6DB002064
:1042100004AE131A9B008500F3586D18AB62401C66
:104220000428F6DB002000E0401C0C904869C00424
:1042300002D40C986428F7DB002008AB151AAD00F7
:104240006D18AD6B8600401C9D510428F6DB1022D2
:104250001846A168FEF735FB012020730EB070BD33
:10426000FFB517460646082281B0C00603D50A21CD
:10427000BF2006400CE01D480068E030017F890641
:1042800002D5807F800702D4002005B0F0BD082150
:10429000304600F0C3F8040026D002982071E78071
:1042A000049820720A9860722046251D06220A3062
:1042B0000B99FFF7F3FE284606220C300C99FFF706
:1042C000EDFE2846062212300D99FFF7E7FE0E9804
:1042D00028830F9868831098A8831198A87721469F
:1042E000304600F0FFF8CFE70720CEE7D4020020E9
:1042F000FFB50646052281B01F46C00603D505213D
:10430000BF20064009E017480068E030017F8906B9
:1043100022D5407FC0071FD00321304600F07EF831
:1043200004001CD0029820710398E08027720A983C
:1043300060722046251D06220A300B99FFF7AEFE5B
:104340000C98A8810D98E8810E9828820F98A8747F
:104350002146304600F0C6F8002005B0F0BD072029
:10436000FBE70000D402002070B515460446012288
:104370000E46C00603D50421BF20044008E00B48C8
:104380000068E030807E000601D4002070BD02216C
:10439000204600F043F8010005D00E71CD80204684
:1043A00000F0A0F8F1E7072070BD0000D402002063
:1043B000F8B51646044602221D460F46C00603D530
:1043C0000321BF20044008E00B480068E030407D36
:1043D000000601D40020F8BD0121204600F01EF89F
:1043E000010006D00F71CE800D72204600F07AF8E1
:1043F000F0E70720F8BD0000D402002070B590253A
:10440000044601220021284600F008F8010003D0EC
:1044100028464C6000F066F870BDFEE7F7B5304EF8
:10442000054600073168800E411803200002081875
:104430000027C46982B09446280616D572B601AB2F
:104440006A466146204600F0B7FB00280BD068465C
:104450008188009882789208920082700180618041
:10446000012762B615E062B621E001AB6A466146FB
:10447000204600F0A1FB002819D0680609D4684640
:104480008188009882789208920082700180618011
:1044900001270098AA00817840238907890F1A40D4
:1044A000114381700399C170002F0ED115E00020D7
:1044B000009072B6A8060FD40320316800020818D5
:1044C000816808221143816062B672B63068F722B3
:1044D000403041781140417062B6009805B0F0BD9F
:1044E000D40200200A46400608D5D07838280AD2DF
:1044F000054980000B58111D104618479078800818
:104500008000801C88707047D4700510F8B516467E
:10451000044603221D460F46C00603D50F21BF20C7
:1045200004400BE00E480068E030017F890602D5A8
:10453000407F400701D40020F8BD0C212046FFF742
:104540006DFF01000AD00F71CE800D81069A4A815D
:10455000079A8A812046FFF7C5FFECE70720F8BDE0
:10456000D4020020FFB516460546042281B0C006DD
:1045700003D50B21BF2005400CE016480068E03051
:10458000017F890602D5807F400702D4002005B054
:10459000F0BD09212846FFF741FF040017D002981B
:1045A00020716671271D0622A01D0499FFF776FD74
:1045B0000A9838723846062209300B99FFF76EFDCB
:1045C0000C98F87321462846FFF78CFFDEE707209A
:1045D000DDE70000D4020020FFB581B006460A984E
:1045E000032113300843401C8208F00603D507213D
:1045F000BF2006400CE017480068E030017F8906C4
:1046000002D5407F800702D4002005B0F0BD05210F
:104610003046FFF703FF05001AD00298287103986F
:1046200068712F462C1D18370622A81D0499FFF724
:1046300035FD0A982072E76038460A9A0B99FFF711
:104640002DFD0C98207429463046FFF74BFFDBE721
:104650000720DAE7D4020020FEB52D490B6865215A
:10466000C9005C180121890259184A6AAF218900E2
:104670005918012600E0401C082843DA8F7C354693
:1046800085402F42F7D038254543AD18AD786D07EA
:104690006D0F052DEFD10021009101917D2521465F
:1046A0006D02C0314D818873382148438518184602
:1046B000052269464230FEF704F980200099015135
:1046C0007C21019808550C20285E08210622695E8D
:1046D000504309300F18296B0E480860286B0522DB
:1046E0008760687930436871296B6846C91CFEF79A
:1046F000E8F8A8790221C006C00E0843A87140342A
:104700002787FEBDC034207AFD2108402072FEBDFF
:10471000D40200200308010070B590250446012250
:1047200011462846FFF77AFE010003D028464C6068
:10473000FFF7D8FE70BD00B5FFF7ACFB0346FFF7EF
:10474000A9FB0004181800BD7047FEE7F0B50D4640
:10475000FF2187B004240191032800D105247C2186
:10476000484321494718621E01219140491E641E99
:104770003F1DCEB2002C34DB611E01208840C0B248
:104780000090A87969460872687948722879887219
:10479000E878C872A87808736878487328788873AE
:1047A000F200D01983790B7443794B7403798B74BD
:1047B000C378CB7483780B7540784875B85C88757E
:1047C000072204A902A8FFF779FC002803D000986B
:1047D00003DA301A02E0019603E03018C6B2641E14
:1047E000CAD5019807B0F0BDA84100207FB5124C92
:1047F00065252468ED0064190925ED06246D2D69F1
:10480000641B0E4D24022D88240A2D0708D5002B89
:1048100006D10D231B059C4202DD00F002FA07E0E1
:104820006B4607C30020694608736846FFF7D4FC4F
:10483000002004B070BD0000D4020020C0000020A1
:10484000F3B589B0714808900F46099800250F21EB
:10485000032800D11F217C2250436D4A801801900B
:104860000478061D8C4204D10998002813D003282F
:1048700011D08C4202D1099802280ED006963946F2
:104880000998FFF763FF0790FF2809D00998FE25D4
:10489000002879D0B6E0FF25B4E0FC250696EEE7C7
:1048A000FE2D72D009995B48009002290DD1FC2D94
:1048B0000BD1417A0698CA001018C279009842724A
:1048C000022000F0A9F8641EE4B2E0008619002C72
:1048D00048D0B97968460172797941723979817223
:1048E000F978C172B97801737978417335463978AE
:1048F000083D8173A97901746979417429798174BA
:10490000E978C174A978017569784175297881754C
:10491000072204A902A8FFF7D1FB002808DD07221F
:1049200039463046FFF7BAFBE5B2002C1AD01FE03B
:10493000072229463046FFF7B1FB099802280CD020
:10494000E879C143490608D0362148430899099AB5
:1049500040180999415C491C8154E879F0712E4650
:10496000641EB6D1072239463046FFF797FB002573
:1049700009980228019809D000780199401C087014
:104980000998002839D03DE039E032E003780698F4
:10499000D9000818002B10DB01215B1C012B08DB60
:1049A000C279521CA24200DDC2710838491C9942EA
:1049B000F6DD0198007800280DD00098407AA042DA
:1049C00002DB0099401C48720098007AA04202DB8A
:1049D0000099401C08720098007AC10006980818D7
:1049E000C47100980472019801990078401C087005
:1049F00008E00998002802D004E0FE2D02D1079DAE
:104A00008020054328460BB0F0BD00006A3E002020
:104A1000A8410020603E0020F0B505460E4689B052
:104A20002C480F210690032D00D11F217C202A4AFB
:104A3000684380180590001D0490FF2E2FD0491E5A
:104A4000C8B23446009086421BD20498E1000F1889
:104A50003946083138460722FFF720FBF97BF97108
:104A6000022D09D0C843400606D03620414306989F
:104A70000818415D491E4155641C0098E4B2844207
:104A8000E3D3C100049807220C18FF212046FFF74A
:104A90000BFBFF20E07105980178491E0170022D83
:104AA00015D10E48417AB14201D9491E4172017AAD
:104AB000B14201D9491E017204980F22C01D01782C
:104AC000B14201D9491E01700830521EF7D109B018
:104AD000F0BD00006A3E0020A8410020603E00209A
:104AE000124207D08B0706D00B78491C0370401C7C
:104AF000521EF7D87047830706D00B78491C037005
:104B0000401C521EF9D1704770B4103A03D378C9D3
:104B1000103A78C0FBD2530701D318C918C001D589
:104B200008C908C0D20704D30B880380891C801CE5
:104B3000002A01D50B78037070BC70471206130A67
:104B40001A43130C1A4300BF094205D0830705D04E
:104B50000270401C491EF9D170470000130030B4A8
:104B600014001500103902D310393CC0FCD249079B
:104B700000D30CC000D504C0890002D30280801C81
:104B8000002900D5027030BC704700000022E5E724
:104B900010B402E0401C491C521E002A09D00B78B8
:104BA00004789C42F6D002D20020C04302E00120EB
:104BB00000E0002010BC7047F0B54488491CA5B245
:104BC000ECB2AD081D8089B287886E18BE4203D949
:104BD000491B641C89B2E4B2AD002D18083515607C
:104BE0001D88A4076D18AD00A40F2543ACB21C802E
:104BF0000388E41AA3079B0F012B02D803D1002CD2
:104C000001DD00230BE0012309B2002907DA116856
:104C10008C78A408A400641C8C70083010601846BE
:104C2000F0BDF0B50F46B5B01546002130AA0F23F0
:104C3000445C5E1A491C94551029F9DB1022694620
:104C400030A800F02DF80026B400E019401CFFF752
:104C5000A1F9395D000208430321891B89002CACAE
:104C6000761C6050042EEFDB214610236A4608466E
:104C700000F032F800200326311A8900635C8200BC
:104C8000AB54635A52191B0A53706358401C1B0CD7
:104C900093706158090ED1700428EDDB35B0F0BD7A
:104CA000F7B50298002486100DE00098A7003D1883
:104CB0002846FFF76FF900BA000AE97800020843B6
:104CC0000199641CC851A642EFDC0199029A08467A
:104CD00000F036F9FEBDFEE7FFB5D910490083B0FC
:104CE000891D02910368116854684B4041689568BA
:104CF00061408468C0686C40A446D4681E0E604061
:104D00008C4CC5B2A65D655D3606354367460E021E
:104D10003F04360E3F0EA65DE75D36043F023E437C
:104D2000354300950E0EDDB2A65D655D3606354352
:104D3000664636020704360E3F0EA65DE75D360472
:104D40003F023E433543AE46CDB2665D65462F0E0B
:104D5000E75D1D043F063E4307023F0E2D0EE75D53
:104D6000655D3F042D022F433E4301966546EDB23B
:104D7000070E665DE75D0D043F063E431F023F0ED2
:104D8000E75D2D0E645D3F0424022743029C3E43F1
:104D9000641E10320294002C65DD674C0098674950
:104DA000204043000098654DC00908401B2148433E
:104DB00043400099184648401821C8414340009894
:104DC0001021C841434000980821C8414340106861
:104DD0005A4F43407046204041007046C009284069
:104DE0001B25684341400846754668401825E84140
:104DF000414070461025E841414070460825E84191
:104E000041405068019D41400198ED0920403D40DE
:104E100040001B277D436840019F05467D401827C1
:104E2000FD416840019D1027FD416840019D082714
:104E3000FD416840956868408446304620403F4DBB
:104E4000F4092C4040001B256C436040044674402C
:104E50001825EC41604010243546E541082468409F
:104E6000E641704049E7334CC5B2665D1D0E645D96
:104E7000240626430C02250E2E4C645D65462D0447
:104E80002F0E2C4D2404ED5D2D022C432643294C7E
:104E90000096DDB2655D0E0EA45D240625436446D2
:104EA0002402260E234CA45D0604370E214E240452
:104EB000F65D360234432543AE461E4CCDB2645DEA
:104EC00065461C4E2F0EF55D2D062C4305022F0E58
:104ED000F55D1F042E043D0E164F7F5D65463F02B3
:104EE0003E433443EEB2134DAF5D050E1148405DB5
:104EF000000607431802030E0E48C05C09040B0E9F
:104F00000C490004C95C9368090208430743106810
:104F1000009E63405168049C7040D26820607546D2
:104F200004986940416004987A4083600498C260A4
:104F300007B0F0BDAC6F05107F7F7F7F01010101DD
:104F4000F0B500231D46941003E0AA0086588E5049
:104F50006D1CAC42F9DC504FFA1FF93A042C04D016
:104F6000062C28D0082C7DD14FE0C86805022D0EF4
:104F7000040E555D145D2D062C4305042D0EC0B2A4
:104F8000555D105C2D04000205432C439D007D59A6
:104F900008686840444001205B1C0C61840065186F
:104FA0000C59EE68401C66402E610428F6DB0A2B83
:104FB00071DA1031D9E7486905022D0E040E555DEE
:104FC000145D2D062C4305042D0EC0B2555D105CFA
:104FD0002D04000205432C439D007D59086868405C
:104FE000444001205B1C8C61840065180C596E697B
:104FF0006640AE61032804D0401C0628F4DB18315B
:10500000D9E7082B47DA0420EEE7C86905022D0E20
:10501000040E555D145D2D062C4305042D0EC0B203
:10502000555D105C2D04000205432C439D007D5905
:1050300008686840444001205B1C0C6284006518CD
:105040000C59EE69401C66402E620428F6DB072BE3
:1050500021DAC86A050EC4B2555D145D2D062C43D5
:10506000050200E017E02D0E0004555D000E105CF7
:105070002D040002054308692C43444005200C63BD
:10508000840065180C59EE69401C66402E620828A1
:10509000F6DB2031B9E7F0BDAC700510E02252001C
:1050A00080180268914203D34368D218914202D318
:1050B00080680028F5D170471848016800290ED192
:1050C000802149028160090941600021C943C16012
:1050D000016104214161124A1160124901600120FD
:1050E000704730B407230C0008341C4201D1002360
:1050F00004E008240D000835641B2340C918D21AA7
:105100008161C260012313434B60282389184B60DF
:1051100002490969C16130BC704700008448002021
:10512000D44500206859883CF0B587B004000720BA
:105130000D000835054205D008250E000836AD1BC8
:1051400005404919029111000831014205D008219A
:1051500015000835491B0840121817000298C0189E
:10516000039005460298381AC01A0190032633436B
:1051700002984360BD4201D301F0ECFA3879C007D0
:1051800001D401F0E7FA0198102801D201F0E2FA07
:10519000A069874208D1E06801994018E060A561E4
:1051A0000121014369606AE16069874209D1A06811
:1051B00001994018A0606561012101436960285090
:1051C0005DE178680640012E00D0B9E007218843F0
:1051D0000590C00820283CD2B9680091FE68049070
:1051E000B74201D101F0B6FA0098874201D101F02F
:1051F000B1FA7868072188430499C900884201D030
:1052000001F0A8FA0498C000201800990200283282
:10521000914207D02269914200D289E0C968B9421F
:1052200000D085E000998E4206D120680121049AC1
:105230009140884320607DE02830864205D0206977
:10524000864275D3B068B84272D1CE600098B06023
:1052500070E0B8690090FE68BE420CD0B868216961
:10526000884225D3C168B94222D1B168B9421FD161
:10527000C660B0601EE0380014300668002E07D10A
:10528000380010300668002E14D001E008000668CF
:10529000310014310A68002AF8D1310010310A684F
:1052A000002AF3D12169884202D30021016001E084
:1052B00001F050FA009800283CD0F86980002018CE
:1052C00098214900401801688F4209D10660002EDC
:1052D00014D160680121FA6991408843606029E037
:1052E00000982169884207D30069B842009801D12B
:1052F000066103E0466101E001F02CFA002E19D0AE
:105300002069864214D30099B1613969002906D019
:10531000814202D331618E6101E001F01BFA7869AC
:10532000002807D02169884202D37061866101E0BC
:1053300001F010FA05983F1801980599401801905E
:105340007868012188437860019801436960019879
:1053500028500198C008202822D20090C0002718A9
:1053600028373E000198102801D201F0F3F9206897
:1053700000990200CA40D10705D40121009A91404A
:105380000143216007E0B8682169884201D3060023
:1053900001E001F0DFF9BD60F560AE60EF606EE046
:1053A0000198000A01D1002225E0802149028842AB
:1053B00001D31F221FE0FF21C9434118090C082215
:1053C00011408840304A8218120C04231A40904041
:1053D0002E4BC3181B0C022633400E26711A891A55
:1053E000C91A9840C00B08184100019AC01DC2405C
:1053F000D007C00F0A1890002018982149004118C2
:10540000EA6100206861286163681E00D640F607E3
:1054100005D401209040184360600D601BE00968CE
:105420001F2A019B05D019265208B21A934000E0AA
:1054300011004A680726B243019EB24210D0DA0F2B
:1054400092008E1810365B003268002AF0D1206975
:10545000864212D33560A961ED600398A8600EE022
:105460008A682369994208D39A4206D3D560039B80
:105470008B60AA60E960A86101E001F06BF9029815
:10548000083007B0F0BD000000F0FFFF00C0FFFFD4
:10549000F2B586B004008F480068002801D1FFF7FC
:1054A0000BFE8C488168069840182F30491E8843AF
:1054B0000699814200D3DCE1D8214900611889684E
:1054C000002909D0D8225200A2581018824200D3D5
:1054D000CFE1814200D2CCE101F042F9002800D1B5
:1054E000C7E1009007680021C943884200D1C0E1AC
:1054F000D82040002058C019D821490060506118B8
:105500004968814200D20100D82040002018416043
:10551000A069002839D12069002802D00099814271
:1055200001D2009820610098D821490061180861D3
:10553000D8204000201847610026D82040002018BD
:10554000C6616448006860620020C0432062200099
:105550002830C06001468160083141610161B61C9C
:105560001030202EF5D3C448844203D1283F3A009E
:10557000009926E0201F0068072188432118083978
:105580000098C019421A283A1BE0E0204000201879
:1055900000E08068002818D0009902684368D2189B
:1055A0009142F6D1017B09070FD4A16902689142AB
:1055B0000BD3D218914208D2D9194160E068C219C0
:1055C000A1692000FFF78DFD3FE100982169884225
:1055D00000D22061E020400020180099C91900E0A5
:1055E0008068002810D002688A42F9D1017B09073F
:1055F0000AD4009901604168C9194160069B00996D
:105600002000FFF791FD35E1A069039005462900D0
:105610002000FFF743FD016840680818059027380F
:105620000026410701D1002003E00821081A4007A5
:10563000400F059908182F3829001031884201D2EF
:10564000019500E00190019818300290049638000E
:10565000283800990831490701D1002105E00821C7
:10566000009A0832891A4907490F401A009A5118BE
:10567000A161E060012202434A60282208184260CA
:1056800014480069E06101980830400701D001F03A
:1056900061F81B200199486001980830E021490019
:1056A00061181022FFF730FA0098D82149006118DC
:1056B0000861D820400020184761D82040002018F9
:1056C000C66101980830D8214900611888610598A1
:1056D00005E000BF844800200299091D02910721BE
:1056E000029A51600499491C04910299083181423F
:1056F000F2D30498022801DA01F02CF80198A842AC
:1057000000D1A2E0411B426801239A43426001227A
:105710000A436A600160C808202821D20090C000B6
:10572000271828373E00102901D201F013F820680D
:1057300000990200CA40D10705D40121009A914086
:105740000143216007E0B8682169884201D306005F
:1057500001E000F0FFFFBD60F560AE60EF6074E057
:10576000080A01D1002228E01A04904201D31F2226
:1057700023E0FF22D2438218120C08231A40009221
:1057800090403E4A8218120C04231A4090403C4B31
:10579000C3181B0C02273B4001930E23009FDB1B09
:1057A0009A1A019BD21A9840C00B10184200C01DD3
:1057B0000B00C340D807C00F121890002018982380
:1057C0005B00C0180090EA616E612E6160680300A2
:1057D000D340DB0707D40121914001436160009869
:1057E000056000981DE0009800681F2A01D10A009A
:1057F00006E0192352089B1A0A009A4000E038007C
:1058000043680727BB438B4210D0D30F9B00C318BC
:10581000103352001F68002FF1D121698B4212D33F
:105820001D60A861ED600398A8600EE081682269A0
:10583000904208D3914206D3CD60039A8260A9605A
:10584000E860AE6101E000F085FFE0680699814202
:105850000FD2401AE060A169069A8A18A26101235A
:10586000034353600698032202434A60080008304D
:1058700000E0002007B0F0BD1844002000F0FFFF5A
:1058800000C0FFFFF2B584B004000020009004982F
:105890004542000A25D080214902884201D31F20B9
:1058A0001FE0FF21C9434118090C0822114088401C
:1058B000B34A8218120C04231A409040114BC318AB
:1058C0001B0C022633400E26711A891AC91A9840F9
:1058D000C00B08184100049AC01DC240D007C00F79
:1058E000081881006118982252008B58002B28D08C
:1058F0001F28049A03D019214608891B8A400021D9
:1059000003E000BF00C0FFFF52005E680727BE43F0
:10591000049FF61BAE4202D2009335000CD05E69A4
:10592000D70FBF00DB191B69002E02D09E4200D0AA
:105930003100002BE8D10B00002B3FD1009900294A
:105940003ED101210122824050004342034362685C
:105950001A4000D178E150421040401E020B102343
:105960001A40D040430908263340D840860804270F
:105970003E400296F040460802273E400196F04025
:1059800046083140D218029BD218019BD2185218F7
:10599000C8401018800020189821490043580DE095
:1059A00003005868072188430499401AA84201D28D
:1059B0000500009318690028F2D15B69002BF0D133
:1059C0000098002800D13FE1A0680499401A854260
:1059D00000D339E1009E2069864200D232E1681886
:1059E000029000984068072188430299884201D0BC
:1059F00000F0B0FE009804994718BE4200D321E1A0
:105A0000806901900098C66886420DD0806821693F
:105A1000884225D3C168009A914221D1B168914250
:105A20001ED1C660B0601DE014300668002E07D19C
:105A3000009810300668002E14D001E008000668B7
:105A4000310014310A68002AF8D1310010310A6897
:105A5000002AF3D12169884202D30021016001E0CC
:105A600000F078FE0198002843D00098C0698000BB
:105A700020189821490040180099026891420AD1E3
:105A80000660002E16D160680121009AD26991400B
:105A9000884360602DE001982169884208D300693D
:105AA00000998842019801D1066103E0466101E056
:105AB00000F050FE002E1CD02069864217D30198BA
:105AC000B06100980069002807D02169884202D39C
:105AD0003061866101E000F03DFE009840690028D9
